{
  "contractName": "Record",
  "abi": [
    {
      "inputs": [
        {
          "internalType": "uint256",
          "name": "uniqueId",
          "type": "uint256"
        },
        {
          "internalType": "string",
          "name": "recDate",
          "type": "string"
        },
        {
          "internalType": "string",
          "name": "recDRName",
          "type": "string"
        },
        {
          "internalType": "string",
          "name": "recDisease",
          "type": "string"
        },
        {
          "internalType": "string",
          "name": "recMedicine",
          "type": "string"
        },
        {
          "internalType": "string",
          "name": "recTests",
          "type": "string"
        }
      ],
      "name": "set",
      "outputs": [],
      "stateMutability": "nonpayable",
      "type": "function"
    },
    {
      "inputs": [
        {
          "internalType": "uint256",
          "name": "uniqueId",
          "type": "uint256"
        }
      ],
      "name": "getRecordCount",
      "outputs": [
        {
          "internalType": "uint256",
          "name": "",
          "type": "uint256"
        }
      ],
      "stateMutability": "view",
      "type": "function",
      "constant": true
    },
    {
      "inputs": [
        {
          "internalType": "uint256",
          "name": "uniqueId",
          "type": "uint256"
        },
        {
          "internalType": "uint256",
          "name": "index",
          "type": "uint256"
        }
      ],
      "name": "getRecordByIndex",
      "outputs": [
        {
          "internalType": "string",
          "name": "",
          "type": "string"
        },
        {
          "internalType": "string",
          "name": "",
          "type": "string"
        },
        {
          "internalType": "string",
          "name": "",
          "type": "string"
        },
        {
          "internalType": "string",
          "name": "",
          "type": "string"
        },
        {
          "internalType": "string",
          "name": "",
          "type": "string"
        }
      ],
      "stateMutability": "view",
      "type": "function",
      "constant": true
    }
  ],
  "bytecode": "0x608060405234801561001057600080fd5b50610b5e806100206000396000f3fe608060405234801561001057600080fd5b50600436106100415760003560e01c806325365424146100465780632ccbd0531461007a578063f2a5744114610096575b600080fd5b610060600480360381019061005b9190610800565b6100c6565b6040516100719594939291906108a7565b60405180910390f35b610094600480360381019061008f91906106ff565b610494565b005b6100b060048036038101906100ab91906106d6565b610597565b6040516100bd919061093d565b60405180910390f35b6060806060806060600080888152602001908152602001600020805490508610610125576040517f08c379a000000000000000000000000000000000000000000000000000000000815260040161011c9061091d565b60405180910390fd5b60008060008981526020019081526020016000208781548110610171577f4e487b7100000000000000000000000000000000000000000000000000000000600052603260045260246000fd5b90600052602060002090600502016040518060a001604052908160008201805461019a90610a16565b80601f01602080910402602001604051908101604052809291908181526020018280546101c690610a16565b80156102135780601f106101e857610100808354040283529160200191610213565b820191906000526020600020905b8154815290600101906020018083116101f657829003601f168201915b5050505050815260200160018201805461022c90610a16565b80601f016020809104026020016040519081016040528092919081815260200182805461025890610a16565b80156102a55780601f1061027a576101008083540402835291602001916102a5565b820191906000526020600020905b81548152906001019060200180831161028857829003601f168201915b505050505081526020016002820180546102be90610a16565b80601f01602080910402602001604051908101604052809291908181526020018280546102ea90610a16565b80156103375780601f1061030c57610100808354040283529160200191610337565b820191906000526020600020905b81548152906001019060200180831161031a57829003601f168201915b5050505050815260200160038201805461035090610a16565b80601f016020809104026020016040519081016040528092919081815260200182805461037c90610a16565b80156103c95780601f1061039e576101008083540402835291602001916103c9565b820191906000526020600020905b8154815290600101906020018083116103ac57829003601f168201915b505050505081526020016004820180546103e290610a16565b80601f016020809104026020016040519081016040528092919081815260200182805461040e90610a16565b801561045b5780601f106104305761010080835404028352916020019161045b565b820191906000526020600020905b81548152906001019060200180831161043e57829003601f168201915b50505050508152505090508060000151816020015182604001518360600151846080015195509550955095509550509295509295909350565b60006040518060a0016040528087815260200186815260200185815260200184815260200183815250905060008088815260200190815260200160002081908060018154018082558091505060019003906000526020600020906005020160009091909190915060008201518160000190805190602001906105179291906105b6565b5060208201518160010190805190602001906105349291906105b6565b5060408201518160020190805190602001906105519291906105b6565b50606082015181600301908051906020019061056e9291906105b6565b50608082015181600401908051906020019061058b9291906105b6565b50505050505050505050565b6000806000838152602001908152602001600020805490509050919050565b8280546105c290610a16565b90600052602060002090601f0160209004810192826105e4576000855561062b565b82601f106105fd57805160ff191683800117855561062b565b8280016001018555821561062b579182015b8281111561062a57825182559160200191906001019061060f565b5b509050610638919061063c565b5090565b5b8082111561065557600081600090555060010161063d565b5090565b600061066c6106678461097d565b610958565b90508281526020810184848401111561068457600080fd5b61068f8482856109d4565b509392505050565b600082601f8301126106a857600080fd5b81356106b8848260208601610659565b91505092915050565b6000813590506106d081610b11565b92915050565b6000602082840312156106e857600080fd5b60006106f6848285016106c1565b91505092915050565b60008060008060008060c0878903121561071857600080fd5b600061072689828a016106c1565b965050602087013567ffffffffffffffff81111561074357600080fd5b61074f89828a01610697565b955050604087013567ffffffffffffffff81111561076c57600080fd5b61077889828a01610697565b945050606087013567ffffffffffffffff81111561079557600080fd5b6107a189828a01610697565b935050608087013567ffffffffffffffff8111156107be57600080fd5b6107ca89828a01610697565b92505060a087013567ffffffffffffffff8111156107e757600080fd5b6107f389828a01610697565b9150509295509295509295565b6000806040838503121561081357600080fd5b6000610821858286016106c1565b9250506020610832858286016106c1565b9150509250929050565b6000610847826109ae565b61085181856109b9565b93506108618185602086016109e3565b61086a81610ad7565b840191505092915050565b6000610882600d836109b9565b915061088d82610ae8565b602082019050919050565b6108a1816109ca565b82525050565b600060a08201905081810360008301526108c1818861083c565b905081810360208301526108d5818761083c565b905081810360408301526108e9818661083c565b905081810360608301526108fd818561083c565b90508181036080830152610911818461083c565b90509695505050505050565b6000602082019050818103600083015261093681610875565b9050919050565b60006020820190506109526000830184610898565b92915050565b6000610962610973565b905061096e8282610a48565b919050565b6000604051905090565b600067ffffffffffffffff82111561099857610997610aa8565b5b6109a182610ad7565b9050602081019050919050565b600081519050919050565b600082825260208201905092915050565b6000819050919050565b82818337600083830152505050565b60005b83811015610a015780820151818401526020810190506109e6565b83811115610a10576000848401525b50505050565b60006002820490506001821680610a2e57607f821691505b60208210811415610a4257610a41610a79565b5b50919050565b610a5182610ad7565b810181811067ffffffffffffffff82111715610a7057610a6f610aa8565b5b80604052505050565b7f4e487b7100000000000000000000000000000000000000000000000000000000600052602260045260246000fd5b7f4e487b7100000000000000000000000000000000000000000000000000000000600052604160045260246000fd5b6000601f19601f8301169050919050565b7f496e76616c696420696e64657800000000000000000000000000000000000000600082015250565b610b1a816109ca565b8114610b2557600080fd5b5056fea26469706673582212205c2bc8927fa34fdfa36f9efa2617ebef284c12ad554a2330a566720bcc7eb9b164736f6c63430008020033",
  "immutableReferences": {},
  "source": "// SPDX-License-Identifier: MIT\r\npragma solidity ^0.8.0;\r\n\r\ncontract Record {\r\n    struct PRecord {\r\n        string Date;\r\n        string DRName;\r\n        string Disease;\r\n        string Medicine;\r\n        string Tests;\r\n    }\r\n\r\n    mapping(uint256 => PRecord[]) private SurUniqueId;\r\n\r\n    function set(\r\n        uint256 uniqueId,\r\n        string memory recDate,\r\n        string memory recDRName,\r\n        string memory recDisease,\r\n        string memory recMedicine,\r\n        string memory recTests\r\n\r\n    ) public {\r\n        PRecord memory newRecord = PRecord({\r\n            Date: recDate,\r\n            DRName: recDRName,\r\n            Disease: recDisease,\r\n            Medicine: recMedicine,\r\n            Tests:recTests\r\n        });\r\n        SurUniqueId[uniqueId].push(newRecord);\r\n    }\r\n\r\n    function getRecordCount(uint256 uniqueId) public view returns (uint256) {\r\n        return SurUniqueId[uniqueId].length;\r\n    }\r\n\r\n    function getRecordByIndex(uint256 uniqueId, uint256 index)\r\n        public\r\n        view\r\n        returns (string memory, string memory, string memory, string memory, string memory)\r\n    {\r\n        require(index < SurUniqueId[uniqueId].length, \"Invalid index\");\r\n        PRecord memory record = SurUniqueId[uniqueId][index];\r\n        return (record.Date, record.DRName, record.Disease, record.Medicine, record.Tests);\r\n    }\r\n}\r\n",
  "sourcePath": "D:\\FYP\\FYP mid 23 June\\FYP mid\\ehr-frontend\\src\\contracts\\Record.sol",
  "compiler": {
    "name": "solc",
    "version": "0.8.2+commit.661d1103.Emscripten.clang"
  },
  "schemaVersion": "3.4.14",
  "updatedAt": "2023-07-04T18:12:24.139Z",
  "networkType": "ethereum",
  "devdoc": {
    "kind": "dev",
    "methods": {},
    "version": 1
  },
  "userdoc": {
    "kind": "user",
    "methods": {},
    "version": 1
  }
}