{
  "contractName": "Report",
  "abi": [
    {
      "inputs": [
        {
          "internalType": "uint256",
          "name": "uniqueId",
          "type": "uint256"
        },
        {
          "internalType": "string",
          "name": "imageHash",
          "type": "string"
        },
        {
          "internalType": "string",
          "name": "imageDate",
          "type": "string"
        },
        {
          "internalType": "string",
          "name": "imageFileName",
          "type": "string"
        }
      ],
      "name": "set",
      "outputs": [],
      "stateMutability": "nonpayable",
      "type": "function"
    },
    {
      "inputs": [
        {
          "internalType": "uint256",
          "name": "uniqueId",
          "type": "uint256"
        }
      ],
      "name": "getImageCount",
      "outputs": [
        {
          "internalType": "uint256",
          "name": "",
          "type": "uint256"
        }
      ],
      "stateMutability": "view",
      "type": "function",
      "constant": true
    },
    {
      "inputs": [
        {
          "internalType": "uint256",
          "name": "uniqueId",
          "type": "uint256"
        },
        {
          "internalType": "uint256",
          "name": "index",
          "type": "uint256"
        }
      ],
      "name": "getImageByIndex",
      "outputs": [
        {
          "internalType": "string",
          "name": "",
          "type": "string"
        },
        {
          "internalType": "string",
          "name": "",
          "type": "string"
        },
        {
          "internalType": "string",
          "name": "",
          "type": "string"
        }
      ],
      "stateMutability": "view",
      "type": "function",
      "constant": true
    }
  ],
  "bytecode": "0x608060405234801561001057600080fd5b5061095c806100206000396000f3fe608060405234801561001057600080fd5b50600436106100415760003560e01c80634c3360ce146100465780636f3bec6e14610076578063fbd58f43146100a8575b600080fd5b610060600480360381019061005b9190610554565b6100c4565b60405161006d919061073b565b60405180910390f35b610090600480360381019061008b9190610628565b6100e3565b60405161009f939291906106cf565b60405180910390f35b6100c260048036038101906100bd919061057d565b610379565b005b6000806000838152602001908152602001600020805490509050919050565b606080606060008086815260200190815260200160002080549050841061013f576040517f08c379a00000000000000000000000000000000000000000000000000000000081526004016101369061071b565b60405180910390fd5b6000806000878152602001908152602001600020858154811061018b577f4e487b7100000000000000000000000000000000000000000000000000000000600052603260045260246000fd5b90600052602060002090600302016040518060600160405290816000820180546101b490610814565b80601f01602080910402602001604051908101604052809291908181526020018280546101e090610814565b801561022d5780601f106102025761010080835404028352916020019161022d565b820191906000526020600020905b81548152906001019060200180831161021057829003601f168201915b5050505050815260200160018201805461024690610814565b80601f016020809104026020016040519081016040528092919081815260200182805461027290610814565b80156102bf5780601f10610294576101008083540402835291602001916102bf565b820191906000526020600020905b8154815290600101906020018083116102a257829003601f168201915b505050505081526020016002820180546102d890610814565b80601f016020809104026020016040519081016040528092919081815260200182805461030490610814565b80156103515780601f1061032657610100808354040283529160200191610351565b820191906000526020600020905b81548152906001019060200180831161033457829003601f168201915b5050505050815250509050806000015181602001518260400151935093509350509250925092565b6000604051806060016040528085815260200184815260200183815250905060008086815260200190815260200160002081908060018154018082558091505060019003906000526020600020906003020160009091909190915060008201518160000190805190602001906103f0929190610434565b50602082015181600101908051906020019061040d929190610434565b50604082015181600201908051906020019061042a929190610434565b5050505050505050565b82805461044090610814565b90600052602060002090601f01602090048101928261046257600085556104a9565b82601f1061047b57805160ff19168380011785556104a9565b828001600101855582156104a9579182015b828111156104a857825182559160200191906001019061048d565b5b5090506104b691906104ba565b5090565b5b808211156104d35760008160009055506001016104bb565b5090565b60006104ea6104e58461077b565b610756565b90508281526020810184848401111561050257600080fd5b61050d8482856107d2565b509392505050565b600082601f83011261052657600080fd5b81356105368482602086016104d7565b91505092915050565b60008135905061054e8161090f565b92915050565b60006020828403121561056657600080fd5b60006105748482850161053f565b91505092915050565b6000806000806080858703121561059357600080fd5b60006105a18782880161053f565b945050602085013567ffffffffffffffff8111156105be57600080fd5b6105ca87828801610515565b935050604085013567ffffffffffffffff8111156105e757600080fd5b6105f387828801610515565b925050606085013567ffffffffffffffff81111561061057600080fd5b61061c87828801610515565b91505092959194509250565b6000806040838503121561063b57600080fd5b60006106498582860161053f565b925050602061065a8582860161053f565b9150509250929050565b600061066f826107ac565b61067981856107b7565b93506106898185602086016107e1565b610692816108d5565b840191505092915050565b60006106aa600d836107b7565b91506106b5826108e6565b602082019050919050565b6106c9816107c8565b82525050565b600060608201905081810360008301526106e98186610664565b905081810360208301526106fd8185610664565b905081810360408301526107118184610664565b9050949350505050565b600060208201905081810360008301526107348161069d565b9050919050565b600060208201905061075060008301846106c0565b92915050565b6000610760610771565b905061076c8282610846565b919050565b6000604051905090565b600067ffffffffffffffff821115610796576107956108a6565b5b61079f826108d5565b9050602081019050919050565b600081519050919050565b600082825260208201905092915050565b6000819050919050565b82818337600083830152505050565b60005b838110156107ff5780820151818401526020810190506107e4565b8381111561080e576000848401525b50505050565b6000600282049050600182168061082c57607f821691505b602082108114156108405761083f610877565b5b50919050565b61084f826108d5565b810181811067ffffffffffffffff8211171561086e5761086d6108a6565b5b80604052505050565b7f4e487b7100000000000000000000000000000000000000000000000000000000600052602260045260246000fd5b7f4e487b7100000000000000000000000000000000000000000000000000000000600052604160045260246000fd5b6000601f19601f8301169050919050565b7f496e76616c696420696e64657800000000000000000000000000000000000000600082015250565b610918816107c8565b811461092357600080fd5b5056fea264697066735822122090c3ae216a5a13d6aaf56fcfa0d6a408ae26aac5348656b0beb1d15f7dedb0a664736f6c63430008020033",
  "immutableReferences": {},
  "source": "// // SPDX-License-Identifier: MIT\r\npragma solidity ^0.8.0;\r\n\r\ncontract Report {\r\n    struct Image {\r\n        string hash;\r\n        string date;\r\n        string fileName;\r\n    }\r\n\r\n    mapping(uint256 => Image[]) private imagesByUniqueId;\r\n\r\n    function set(\r\n        uint256 uniqueId,\r\n        string memory imageHash,\r\n        string memory imageDate,\r\n        string memory imageFileName\r\n    ) public {\r\n        Image memory newImage = Image({\r\n            hash: imageHash,\r\n            date: imageDate,\r\n            fileName: imageFileName\r\n        });\r\n        imagesByUniqueId[uniqueId].push(newImage);\r\n    }\r\n\r\n    function getImageCount(uint256 uniqueId) public view returns (uint256) {\r\n        return imagesByUniqueId[uniqueId].length;\r\n    }\r\n\r\n    function getImageByIndex(uint256 uniqueId, uint256 index)\r\n        public\r\n        view\r\n        returns (string memory, string memory, string memory)\r\n    {\r\n        require(index < imagesByUniqueId[uniqueId].length, \"Invalid index\");\r\n        Image memory image = imagesByUniqueId[uniqueId][index];\r\n        return (image.hash, image.date, image.fileName);\r\n    }\r\n}\r\n\r\n\r\n\r\n\r\n\r\n\r\n\r\n\r\n\r\n\r\n\r\n\r\n\r\n\r\n\r\n\r\n\r\n\r\n\r\n\r\n\r\n\r\n\r\n\r\n\r\n\r\n\r\n\r\n\r\n\r\n\r\n\r\n\r\n\r\n\r\n\r\n\r\n\r\n\r\n\r\n// pragma solidity ^0.8.0;\r\n\r\n// contract Report {\r\n//   struct Image {\r\n//         string hash;\r\n//     }\r\n    \r\n//     mapping(uint256 => Image[]) private imagesByUniqueId;\r\n    \r\n//     function set(uint256 uniqueId, string memory imageHash) public {\r\n//         Image memory newImage = Image(imageHash);\r\n//         imagesByUniqueId[uniqueId].push(newImage);\r\n//     }\r\n    \r\n//     function getImageCount(uint256 uniqueId) public view returns (uint256) {\r\n//         return imagesByUniqueId[uniqueId].length;\r\n//     }\r\n    \r\n//     function getImageByIndex(uint256 uniqueId, uint256 index) public view returns (string memory) {\r\n//         require(index < imagesByUniqueId[uniqueId].length, \"Invalid index\");\r\n//         return imagesByUniqueId[uniqueId][index].hash;\r\n//     }\r\n// }\r\n\r\n\r\n\r\n\r\n\r\n\r\n// pragma solidity ^0.8.0;\r\n\r\n// contract Contract {\r\n    \r\n    \r\n//     // string image;\r\n//      mapping(uint256 => string[]) private image;\r\n\r\n//     // Write function\r\n//     function set(uint256 _number,string memory _imagelocal) public {\r\n//         // image = _imagelocal;\r\n//         image[_number].push(_imagelocal);\r\n//     }\r\n\r\n//     // Read function\r\n//     function get(uint256 _number) public view returns (string[] memory) {\r\n//         // return image;\r\n//         return image[_number];\r\n//     }\r\n\r\n// }",
  "sourcePath": "D:\\FYP\\FYP mid 23 June\\FYP mid\\ehr-frontend\\src\\contracts\\Report.sol",
  "compiler": {
    "name": "solc",
    "version": "0.8.2+commit.661d1103.Emscripten.clang"
  },
  "schemaVersion": "3.4.14",
  "updatedAt": "2023-07-04T18:12:23.620Z",
  "networkType": "ethereum",
  "devdoc": {
    "kind": "dev",
    "methods": {},
    "version": 1
  },
  "userdoc": {
    "kind": "user",
    "methods": {},
    "version": 1
  }
}