{
  "contractName": "Report",
  "abi": [
    {
      "inputs": [
        {
          "internalType": "uint256",
          "name": "uniqueId",
          "type": "uint256"
        },
        {
          "internalType": "string",
          "name": "imageHash",
          "type": "string"
        },
        {
          "internalType": "string",
          "name": "imageDate",
          "type": "string"
        },
        {
          "internalType": "string",
          "name": "imageFileName",
          "type": "string"
        }
      ],
      "name": "set",
      "outputs": [],
      "stateMutability": "nonpayable",
      "type": "function"
    },
    {
      "inputs": [
        {
          "internalType": "uint256",
          "name": "uniqueId",
          "type": "uint256"
        }
      ],
      "name": "getImageCount",
      "outputs": [
        {
          "internalType": "uint256",
          "name": "",
          "type": "uint256"
        }
      ],
      "stateMutability": "view",
      "type": "function",
      "constant": true
    },
    {
      "inputs": [
        {
          "internalType": "uint256",
          "name": "uniqueId",
          "type": "uint256"
        },
        {
          "internalType": "uint256",
          "name": "index",
          "type": "uint256"
        }
      ],
      "name": "getImageByIndex",
      "outputs": [
        {
          "internalType": "string",
          "name": "",
          "type": "string"
        },
        {
          "internalType": "string",
          "name": "",
          "type": "string"
        },
        {
          "internalType": "string",
          "name": "",
          "type": "string"
        }
      ],
      "stateMutability": "view",
      "type": "function",
      "constant": true
    }
  ],
  "bytecode": "0x608060405234801561001057600080fd5b5061092a806100206000396000f3fe608060405234801561001057600080fd5b50600436106100415760003560e01c80634c3360ce146100465780636f3bec6e14610076578063fbd58f43146100a8575b600080fd5b610060600480360381019061005b9190610554565b6100c4565b60405161006d9190610758565b60405180910390f35b610090600480360381019061008b9190610628565b6100e3565b60405161009f939291906106ec565b60405180910390f35b6100c260048036038101906100bd919061057d565b610379565b005b6000806000838152602001908152602001600020805490509050919050565b606080606060008086815260200190815260200160002080549050841061013f576040517f08c379a000000000000000000000000000000000000000000000000000000000815260040161013690610738565b60405180910390fd5b6000806000878152602001908152602001600020858154811061018b577f4e487b7100000000000000000000000000000000000000000000000000000000600052603260045260246000fd5b90600052602060002090600302016040518060600160405290816000820180546101b49061083c565b80601f01602080910402602001604051908101604052809291908181526020018280546101e09061083c565b801561022d5780601f106102025761010080835404028352916020019161022d565b820191906000526020600020905b81548152906001019060200180831161021057829003601f168201915b505050505081526020016001820180546102469061083c565b80601f01602080910402602001604051908101604052809291908181526020018280546102729061083c565b80156102bf5780601f10610294576101008083540402835291602001916102bf565b820191906000526020600020905b8154815290600101906020018083116102a257829003601f168201915b505050505081526020016002820180546102d89061083c565b80601f01602080910402602001604051908101604052809291908181526020018280546103049061083c565b80156103515780601f1061032657610100808354040283529160200191610351565b820191906000526020600020905b81548152906001019060200180831161033457829003601f168201915b5050505050815250509050806000015181602001518260400151935093509350509250925092565b6000604051806060016040528085815260200184815260200183815250905060008086815260200190815260200160002081908060018154018082558091505060019003906000526020600020906003020160009091909190915060008201518160000190805190602001906103f0929190610434565b50602082015181600101908051906020019061040d929190610434565b50604082015181600201908051906020019061042a929190610434565b5050505050505050565b8280546104409061083c565b90600052602060002090601f01602090048101928261046257600085556104a9565b82601f1061047b57805160ff19168380011785556104a9565b828001600101855582156104a9579182015b828111156104a857825182559160200191906001019061048d565b5b5090506104b691906104ba565b5090565b5b808211156104d35760008160009055506001016104bb565b5090565b60006104ea6104e5846107a4565b610773565b90508281526020810184848401111561050257600080fd5b61050d8482856107fa565b509392505050565b600082601f83011261052657600080fd5b81356105368482602086016104d7565b91505092915050565b60008135905061054e816108dd565b92915050565b60006020828403121561056657600080fd5b60006105748482850161053f565b91505092915050565b6000806000806080858703121561059357600080fd5b60006105a18782880161053f565b945050602085013567ffffffffffffffff8111156105be57600080fd5b6105ca87828801610515565b935050604085013567ffffffffffffffff8111156105e757600080fd5b6105f387828801610515565b925050606085013567ffffffffffffffff81111561061057600080fd5b61061c87828801610515565b91505092959194509250565b6000806040838503121561063b57600080fd5b60006106498582860161053f565b925050602061065a8582860161053f565b9150509250929050565b600061066f826107d4565b61067981856107df565b9350610689818560208601610809565b610692816108cc565b840191505092915050565b60006106aa600d836107df565b91507f496e76616c696420696e646578000000000000000000000000000000000000006000830152602082019050919050565b6106e6816107f0565b82525050565b600060608201905081810360008301526107068186610664565b9050818103602083015261071a8185610664565b9050818103604083015261072e8184610664565b9050949350505050565b600060208201905081810360008301526107518161069d565b9050919050565b600060208201905061076d60008301846106dd565b92915050565b6000604051905081810181811067ffffffffffffffff8211171561079a5761079961089d565b5b8060405250919050565b600067ffffffffffffffff8211156107bf576107be61089d565b5b601f19601f8301169050602081019050919050565b600081519050919050565b600082825260208201905092915050565b6000819050919050565b82818337600083830152505050565b60005b8381101561082757808201518184015260208101905061080c565b83811115610836576000848401525b50505050565b6000600282049050600182168061085457607f821691505b602082108114156108685761086761086e565b5b50919050565b7f4e487b7100000000000000000000000000000000000000000000000000000000600052602260045260246000fd5b7f4e487b7100000000000000000000000000000000000000000000000000000000600052604160045260246000fd5b6000601f19601f8301169050919050565b6108e6816107f0565b81146108f157600080fd5b5056fea26469706673582212202d5fe11ee7066fbdbbf129bbe6ca9fee7faa6ee172715639d56a9ae00282caeb64736f6c63430008000033",
  "immutableReferences": {},
  "source": "// // SPDX-License-Identifier: MIT\r\npragma solidity ^0.8.0;\r\n\r\n\r\n\r\ncontract Report {\r\n    struct Image {\r\n        string hash;\r\n        string date;\r\n        string fileName;\r\n    }\r\n\r\n    mapping(uint256 => Image[]) private imagesByUniqueId;\r\n\r\n    function set(\r\n        uint256 uniqueId,\r\n        string memory imageHash,\r\n        string memory imageDate,\r\n        string memory imageFileName\r\n    ) public {\r\n        Image memory newImage = Image({\r\n            hash: imageHash,\r\n            date: imageDate,\r\n            fileName: imageFileName\r\n        });\r\n        imagesByUniqueId[uniqueId].push(newImage);\r\n    }\r\n\r\n    function getImageCount(uint256 uniqueId) public view returns (uint256) {\r\n        return imagesByUniqueId[uniqueId].length;\r\n    }\r\n\r\n    function getImageByIndex(uint256 uniqueId, uint256 index)\r\n        public\r\n        view\r\n        returns (string memory, string memory, string memory)\r\n    {\r\n        require(index < imagesByUniqueId[uniqueId].length, \"Invalid index\");\r\n        Image memory image = imagesByUniqueId[uniqueId][index];\r\n        return (image.hash, image.date, image.fileName);\r\n    }\r\n}\r\n\r\n\r\n\r\n\r\n\r\n\r\n\r\n\r\n\r\n\r\n\r\n\r\n\r\n\r\n\r\n\r\n\r\n\r\n\r\n\r\n\r\n\r\n\r\n\r\n\r\n\r\n\r\n\r\n\r\n\r\n\r\n\r\n\r\n\r\n\r\n\r\n\r\n\r\n\r\n\r\n// pragma solidity ^0.8.0;\r\n\r\n// contract Report {\r\n//   struct Image {\r\n//         string hash;\r\n//     }\r\n    \r\n//     mapping(uint256 => Image[]) private imagesByUniqueId;\r\n    \r\n//     function set(uint256 uniqueId, string memory imageHash) public {\r\n//         Image memory newImage = Image(imageHash);\r\n//         imagesByUniqueId[uniqueId].push(newImage);\r\n//     }\r\n    \r\n//     function getImageCount(uint256 uniqueId) public view returns (uint256) {\r\n//         return imagesByUniqueId[uniqueId].length;\r\n//     }\r\n    \r\n//     function getImageByIndex(uint256 uniqueId, uint256 index) public view returns (string memory) {\r\n//         require(index < imagesByUniqueId[uniqueId].length, \"Invalid index\");\r\n//         return imagesByUniqueId[uniqueId][index].hash;\r\n//     }\r\n// }\r\n\r\n\r\n\r\n\r\n\r\n\r\n// pragma solidity ^0.8.0;\r\n\r\n// contract Contract {\r\n    \r\n    \r\n//     // string image;\r\n//      mapping(uint256 => string[]) private image;\r\n\r\n//     // Write function\r\n//     function set(uint256 _number,string memory _imagelocal) public {\r\n//         // image = _imagelocal;\r\n//         image[_number].push(_imagelocal);\r\n//     }\r\n\r\n//     // Read function\r\n//     function get(uint256 _number) public view returns (string[] memory) {\r\n//         // return image;\r\n//         return image[_number];\r\n//     }\r\n\r\n// }",
  "sourcePath": "/home/fyp/Documents/Final Backend/ehr_backend/contracts/Report.sol",
  "compiler": {
    "name": "solc",
    "version": "0.8.0+commit.c7dfd78e.Emscripten.clang"
  },
  "schemaVersion": "3.4.14",
  "updatedAt": "2023-07-08T19:16:24.048Z",
  "networkType": "ethereum",
  "devdoc": {
    "kind": "dev",
    "methods": {},
    "version": 1
  },
  "userdoc": {
    "kind": "user",
    "methods": {},
    "version": 1
  }
}