{
  "contractName": "Surgeries",
  "abi": [
    {
      "inputs": [
        {
          "internalType": "uint256",
          "name": "uniqueId",
          "type": "uint256"
        },
        {
          "internalType": "string",
          "name": "surDate",
          "type": "string"
        },
        {
          "internalType": "string",
          "name": "surSurgeryName",
          "type": "string"
        },
        {
          "internalType": "string",
          "name": "surDoctorName",
          "type": "string"
        },
        {
          "internalType": "string",
          "name": "surHospitalName",
          "type": "string"
        }
      ],
      "name": "set",
      "outputs": [],
      "stateMutability": "nonpayable",
      "type": "function"
    },
    {
      "inputs": [
        {
          "internalType": "uint256",
          "name": "uniqueId",
          "type": "uint256"
        }
      ],
      "name": "getSurgeryCount",
      "outputs": [
        {
          "internalType": "uint256",
          "name": "",
          "type": "uint256"
        }
      ],
      "stateMutability": "view",
      "type": "function",
      "constant": true
    },
    {
      "inputs": [
        {
          "internalType": "uint256",
          "name": "uniqueId",
          "type": "uint256"
        },
        {
          "internalType": "uint256",
          "name": "index",
          "type": "uint256"
        }
      ],
      "name": "getSurgeryByIndex",
      "outputs": [
        {
          "internalType": "string",
          "name": "",
          "type": "string"
        },
        {
          "internalType": "string",
          "name": "",
          "type": "string"
        },
        {
          "internalType": "string",
          "name": "",
          "type": "string"
        },
        {
          "internalType": "string",
          "name": "",
          "type": "string"
        }
      ],
      "stateMutability": "view",
      "type": "function",
      "constant": true
    }
  ],
  "bytecode": "0x608060405234801561001057600080fd5b50610a2c806100206000396000f3fe608060405234801561001057600080fd5b50600436106100415760003560e01c8063ae39c7b814610046578063aeda3fd414610062578063e33aa29414610092575b600080fd5b610060600480360381019061005b919061063e565b6100c5565b005b61007c60048036038101906100779190610615565b6101a4565b604051610089919061085a565b60405180910390f35b6100ac60048036038101906100a79190610715565b6101c3565b6040516100bc94939291906107d9565b60405180910390f35b6000604051806080016040528086815260200185815260200184815260200183815250905060008087815260200190815260200160002081908060018154018082558091505060019003906000526020600020906004020160009091909190915060008201518160000190805190602001906101429291906104f5565b50602082015181600101908051906020019061015f9291906104f5565b50604082015181600201908051906020019061017c9291906104f5565b5060608201518160030190805190602001906101999291906104f5565b505050505050505050565b6000806000838152602001908152602001600020805490509050919050565b606080606080600080878152602001908152602001600020805490508510610220576040517f08c379a00000000000000000000000000000000000000000000000000000000081526004016102179061083a565b60405180910390fd5b6000806000888152602001908152602001600020868154811061026c577f4e487b7100000000000000000000000000000000000000000000000000000000600052603260045260246000fd5b90600052602060002090600402016040518060800160405290816000820180546102959061093e565b80601f01602080910402602001604051908101604052809291908181526020018280546102c19061093e565b801561030e5780601f106102e35761010080835404028352916020019161030e565b820191906000526020600020905b8154815290600101906020018083116102f157829003601f168201915b505050505081526020016001820180546103279061093e565b80601f01602080910402602001604051908101604052809291908181526020018280546103539061093e565b80156103a05780601f10610375576101008083540402835291602001916103a0565b820191906000526020600020905b81548152906001019060200180831161038357829003601f168201915b505050505081526020016002820180546103b99061093e565b80601f01602080910402602001604051908101604052809291908181526020018280546103e59061093e565b80156104325780601f1061040757610100808354040283529160200191610432565b820191906000526020600020905b81548152906001019060200180831161041557829003601f168201915b5050505050815260200160038201805461044b9061093e565b80601f01602080910402602001604051908101604052809291908181526020018280546104779061093e565b80156104c45780601f10610499576101008083540402835291602001916104c4565b820191906000526020600020905b8154815290600101906020018083116104a757829003601f168201915b5050505050815250509050806000015181602001518260400151836060015194509450945094505092959194509250565b8280546105019061093e565b90600052602060002090601f016020900481019282610523576000855561056a565b82601f1061053c57805160ff191683800117855561056a565b8280016001018555821561056a579182015b8281111561056957825182559160200191906001019061054e565b5b509050610577919061057b565b5090565b5b8082111561059457600081600090555060010161057c565b5090565b60006105ab6105a6846108a6565b610875565b9050828152602081018484840111156105c357600080fd5b6105ce8482856108fc565b509392505050565b600082601f8301126105e757600080fd5b81356105f7848260208601610598565b91505092915050565b60008135905061060f816109df565b92915050565b60006020828403121561062757600080fd5b600061063584828501610600565b91505092915050565b600080600080600060a0868803121561065657600080fd5b600061066488828901610600565b955050602086013567ffffffffffffffff81111561068157600080fd5b61068d888289016105d6565b945050604086013567ffffffffffffffff8111156106aa57600080fd5b6106b6888289016105d6565b935050606086013567ffffffffffffffff8111156106d357600080fd5b6106df888289016105d6565b925050608086013567ffffffffffffffff8111156106fc57600080fd5b610708888289016105d6565b9150509295509295909350565b6000806040838503121561072857600080fd5b600061073685828601610600565b925050602061074785828601610600565b9150509250929050565b600061075c826108d6565b61076681856108e1565b935061077681856020860161090b565b61077f816109ce565b840191505092915050565b6000610797600d836108e1565b91507f496e76616c696420696e646578000000000000000000000000000000000000006000830152602082019050919050565b6107d3816108f2565b82525050565b600060808201905081810360008301526107f38187610751565b905081810360208301526108078186610751565b9050818103604083015261081b8185610751565b9050818103606083015261082f8184610751565b905095945050505050565b600060208201905081810360008301526108538161078a565b9050919050565b600060208201905061086f60008301846107ca565b92915050565b6000604051905081810181811067ffffffffffffffff8211171561089c5761089b61099f565b5b8060405250919050565b600067ffffffffffffffff8211156108c1576108c061099f565b5b601f19601f8301169050602081019050919050565b600081519050919050565b600082825260208201905092915050565b6000819050919050565b82818337600083830152505050565b60005b8381101561092957808201518184015260208101905061090e565b83811115610938576000848401525b50505050565b6000600282049050600182168061095657607f821691505b6020821081141561096a57610969610970565b5b50919050565b7f4e487b7100000000000000000000000000000000000000000000000000000000600052602260045260246000fd5b7f4e487b7100000000000000000000000000000000000000000000000000000000600052604160045260246000fd5b6000601f19601f8301169050919050565b6109e8816108f2565b81146109f357600080fd5b5056fea264697066735822122056f21ce86472d9e9aa75d55cd335463c5127ac2d549221f4316794fb607797e364736f6c63430008000033",
  "immutableReferences": {},
  "source": "// SPDX-License-Identifier: MIT\r\npragma solidity ^0.8.0;\r\n\r\ncontract Surgeries {\r\n    struct Data {\r\n        string date;\r\n        string surgeryName;\r\n        string doctorName;\r\n        string hospitalName;\r\n    }\r\n\r\n    mapping(uint256 => Data[]) private SurUniqueId;\r\n\r\n    function set(\r\n        uint256 uniqueId,\r\n        string memory surDate,\r\n        string memory surSurgeryName,\r\n        string memory surDoctorName,\r\n        string memory surHospitalName\r\n    ) public {\r\n        Data memory newData = Data({\r\n            date: surDate,\r\n            surgeryName: surSurgeryName,\r\n            doctorName: surDoctorName,\r\n            hospitalName: surHospitalName\r\n        });\r\n        SurUniqueId[uniqueId].push(newData);\r\n    }\r\n\r\n    function getSurgeryCount(uint256 uniqueId) public view returns (uint256) {\r\n        return SurUniqueId[uniqueId].length;\r\n    }\r\n\r\n    function getSurgeryByIndex(uint256 uniqueId, uint256 index)\r\n        public\r\n        view\r\n        returns (string memory, string memory, string memory, string memory)\r\n    {\r\n        require(index < SurUniqueId[uniqueId].length, \"Invalid index\");\r\n        Data memory surgery = SurUniqueId[uniqueId][index];\r\n        return (surgery.date, surgery.surgeryName, surgery.doctorName, surgery.hospitalName);\r\n    }\r\n}\r\n",
  "sourcePath": "/home/fyp/Documents/Final Backend/ehr_backend/contracts/Surgeries.sol",
  "compiler": {
    "name": "solc",
    "version": "0.8.0+commit.c7dfd78e.Emscripten.clang"
  },
  "schemaVersion": "3.4.14",
  "updatedAt": "2023-07-08T19:16:24.420Z",
  "networkType": "ethereum",
  "devdoc": {
    "kind": "dev",
    "methods": {},
    "version": 1
  },
  "userdoc": {
    "kind": "user",
    "methods": {},
    "version": 1
  }
}